{
  "contractName": "Whatsapp",
  "abi": [
    {
      "anonymous": false,
      "inputs": [
        {
          "indexed": true,
          "internalType": "address",
          "name": "from",
          "type": "address"
        },
        {
          "indexed": false,
          "internalType": "uint256",
          "name": "timestamp",
          "type": "uint256"
        },
        {
          "indexed": false,
          "internalType": "string",
          "name": "message",
          "type": "string"
        }
      ],
      "name": "NewMessage",
      "type": "event"
    },
    {
      "inputs": [
        {
          "internalType": "address",
          "name": "",
          "type": "address"
        }
      ],
      "name": "lastMessaged",
      "outputs": [
        {
          "internalType": "uint256",
          "name": "",
          "type": "uint256"
        }
      ],
      "stateMutability": "view",
      "type": "function"
    },
    {
      "inputs": [
        {
          "internalType": "string",
          "name": "_message",
          "type": "string"
        }
      ],
      "name": "sendMessage",
      "outputs": [],
      "stateMutability": "nonpayable",
      "type": "function"
    },
    {
      "inputs": [],
      "name": "getAllMessages",
      "outputs": [
        {
          "components": [
            {
              "internalType": "address",
              "name": "user",
              "type": "address"
            },
            {
              "internalType": "string",
              "name": "message",
              "type": "string"
            },
            {
              "internalType": "uint256",
              "name": "timestamp",
              "type": "uint256"
            }
          ],
          "internalType": "struct Whatsapp.Message[]",
          "name": "",
          "type": "tuple[]"
        }
      ],
      "stateMutability": "view",
      "type": "function"
    },
    {
      "inputs": [],
      "name": "getTotalMessagesCount",
      "outputs": [
        {
          "internalType": "uint256",
          "name": "",
          "type": "uint256"
        }
      ],
      "stateMutability": "view",
      "type": "function"
    }
  ],
  "bytecode": "0x608060405234801561001057600080fd5b50610d4a806100206000396000f3fe608060405234801561001057600080fd5b506004361061004c5760003560e01c8063469c81101461005157806353f5e3801461006d578063b8070c731461008b578063c190ec68146100a9575b600080fd5b61006b600480360381019061006691906105a6565b6100d9565b005b6100756102d9565b60405161008291906107da565b60405180910390f35b61009361042a565b6040516100a0919061080b565b60405180910390f35b6100c360048036038101906100be9190610852565b610434565b6040516100d0919061080b565b60405180910390f35b4260028060003373ffffffffffffffffffffffffffffffffffffffff1673ffffffffffffffffffffffffffffffffffffffff1681526020019081526020016000205461012591906108ae565b10610165576040517f08c379a000000000000000000000000000000000000000000000000000000000815260040161015c90610965565b60405180910390fd5b42600260003373ffffffffffffffffffffffffffffffffffffffff1673ffffffffffffffffffffffffffffffffffffffff16815260200190815260200160002081905550600160008154809291906101bc90610985565b9190505550600060405180606001604052803373ffffffffffffffffffffffffffffffffffffffff16815260200183815260200142815250908060018154018082558091505060019003906000526020600020906003020160009091909190915060008201518160000160006101000a81548173ffffffffffffffffffffffffffffffffffffffff021916908373ffffffffffffffffffffffffffffffffffffffff16021790555060208201518160010190816102799190610bd9565b506040820151816002015550503373ffffffffffffffffffffffffffffffffffffffff167f0ff94fec3112de81726d79117e091c7c9d47da8a38c73e8cec7ee350a61898a642836040516102ce929190610ce4565b60405180910390a250565b60606000805480602002602001604051908101604052809291908181526020016000905b8282101561042157838290600052602060002090600302016040518060600160405290816000820160009054906101000a900473ffffffffffffffffffffffffffffffffffffffff1673ffffffffffffffffffffffffffffffffffffffff1673ffffffffffffffffffffffffffffffffffffffff168152602001600182018054610386906109fc565b80601f01602080910402602001604051908101604052809291908181526020018280546103b2906109fc565b80156103ff5780601f106103d4576101008083540402835291602001916103ff565b820191906000526020600020905b8154815290600101906020018083116103e257829003601f168201915b50505050508152602001600282015481525050815260200190600101906102fd565b50505050905090565b6000600154905090565b60026020528060005260406000206000915090505481565b6000604051905090565b600080fd5b600080fd5b600080fd5b600080fd5b6000601f19601f8301169050919050565b7f4e487b7100000000000000000000000000000000000000000000000000000000600052604160045260246000fd5b6104b38261046a565b810181811067ffffffffffffffff821117156104d2576104d161047b565b5b80604052505050565b60006104e561044c565b90506104f182826104aa565b919050565b600067ffffffffffffffff8211156105115761051061047b565b5b61051a8261046a565b9050602081019050919050565b82818337600083830152505050565b6000610549610544846104f6565b6104db565b90508281526020810184848401111561056557610564610465565b5b610570848285610527565b509392505050565b600082601f83011261058d5761058c610460565b5b813561059d848260208601610536565b91505092915050565b6000602082840312156105bc576105bb610456565b5b600082013567ffffffffffffffff8111156105da576105d961045b565b5b6105e684828501610578565b91505092915050565b600081519050919050565b600082825260208201905092915050565b6000819050602082019050919050565b600073ffffffffffffffffffffffffffffffffffffffff82169050919050565b60006106468261061b565b9050919050565b6106568161063b565b82525050565b600081519050919050565b600082825260208201905092915050565b60005b8381101561069657808201518184015260208101905061067b565b60008484015250505050565b60006106ad8261065c565b6106b78185610667565b93506106c7818560208601610678565b6106d08161046a565b840191505092915050565b6000819050919050565b6106ee816106db565b82525050565b600060608301600083015161070c600086018261064d565b506020830151848203602086015261072482826106a2565b915050604083015161073960408601826106e5565b508091505092915050565b600061075083836106f4565b905092915050565b6000602082019050919050565b6000610770826105ef565b61077a81856105fa565b93508360208202850161078c8561060b565b8060005b858110156107c857848403895281516107a98582610744565b94506107b483610758565b925060208a01995050600181019050610790565b50829750879550505050505092915050565b600060208201905081810360008301526107f48184610765565b905092915050565b610805816106db565b82525050565b600060208201905061082060008301846107fc565b92915050565b61082f8161063b565b811461083a57600080fd5b50565b60008135905061084c81610826565b92915050565b60006020828403121561086857610867610456565b5b60006108768482850161083d565b91505092915050565b7f4e487b7100000000000000000000000000000000000000000000000000000000600052601160045260246000fd5b60006108b9826106db565b91506108c4836106db565b92508282019050808211156108dc576108db61087f565b5b92915050565b600082825260208201905092915050565b7f576169742032207365636f6e6473206265666f72652073656e64696e6720616e60008201527f6f74686572206d65737361676500000000000000000000000000000000000000602082015250565b600061094f602d836108e2565b915061095a826108f3565b604082019050919050565b6000602082019050818103600083015261097e81610942565b9050919050565b6000610990826106db565b91507fffffffffffffffffffffffffffffffffffffffffffffffffffffffffffffffff82036109c2576109c161087f565b5b600182019050919050565b7f4e487b7100000000000000000000000000000000000000000000000000000000600052602260045260246000fd5b60006002820490506001821680610a1457607f821691505b602082108103610a2757610a266109cd565b5b50919050565b60008190508160005260206000209050919050565b60006020601f8301049050919050565b600082821b905092915050565b600060088302610a8f7fffffffffffffffffffffffffffffffffffffffffffffffffffffffffffffffff82610a52565b610a998683610a52565b95508019841693508086168417925050509392505050565b6000819050919050565b6000610ad6610ad1610acc846106db565b610ab1565b6106db565b9050919050565b6000819050919050565b610af083610abb565b610b04610afc82610add565b848454610a5f565b825550505050565b600090565b610b19610b0c565b610b24818484610ae7565b505050565b5b81811015610b4857610b3d600082610b11565b600181019050610b2a565b5050565b601f821115610b8d57610b5e81610a2d565b610b6784610a42565b81016020851015610b76578190505b610b8a610b8285610a42565b830182610b29565b50505b505050565b600082821c905092915050565b6000610bb060001984600802610b92565b1980831691505092915050565b6000610bc98383610b9f565b9150826002028217905092915050565b610be28261065c565b67ffffffffffffffff811115610bfb57610bfa61047b565b5b610c0582546109fc565b610c10828285610b4c565b600060209050601f831160018114610c435760008415610c31578287015190505b610c3b8582610bbd565b865550610ca3565b601f198416610c5186610a2d565b60005b82811015610c7957848901518255600182019150602085019450602081019050610c54565b86831015610c965784890151610c92601f891682610b9f565b8355505b6001600288020188555050505b505050505050565b6000610cb68261065c565b610cc081856108e2565b9350610cd0818560208601610678565b610cd98161046a565b840191505092915050565b6000604082019050610cf960008301856107fc565b8181036020830152610d0b8184610cab565b9050939250505056fea264697066735822122024219a0e5076e0b7c22ff6a62702dd0034e07d4e1b9582d4e2f53fda602586b064736f6c63430008110033",
  "immutableReferences": {},
  "source": "// SPDX-License-Identifier: MIT\r\npragma solidity 0.8.17;\r\n\r\ncontract Whatsapp {\r\n    struct Message {\r\n        address user;\r\n        string message;\r\n        uint256 timestamp;\r\n    }\r\n\r\n    Message[] messages;\r\n    uint256 totalMessages;\r\n    mapping(address => uint256) public lastMessaged;\r\n\r\n    event NewMessage(address indexed from, uint256 timestamp, string message);\r\n\r\n    function sendMessage(string memory _message) public {\r\n        require(\r\n            lastMessaged[msg.sender] + 2 seconds < block.timestamp,\r\n            \"Wait 2 seconds before sending another message\"\r\n        );\r\n\r\n        lastMessaged[msg.sender] = block.timestamp;\r\n        totalMessages++;\r\n        messages.push(Message(msg.sender, _message, block.timestamp));\r\n\r\n        emit NewMessage(msg.sender, block.timestamp, _message);\r\n    }\r\n\r\n    function getAllMessages() public view returns (Message[] memory) {\r\n        return messages;\r\n    }\r\n\r\n    function getTotalMessagesCount() public view returns (uint256) {\r\n        return totalMessages;\r\n    }\r\n}",
  "sourcePath": "C:\\Users\\om\\Desktop\\wp\\whatsapp-tw-youtube\\contracts\\WhatsApp.sol",
  "compiler": {
    "name": "solc",
    "version": "0.8.17+commit.8df45f5f.Emscripten.clang"
  },
  "schemaVersion": "3.4.11",
  "updatedAt": "2023-02-09T08:04:04.159Z",
  "devdoc": {
    "kind": "dev",
    "methods": {},
    "version": 1
  },
  "userdoc": {
    "kind": "user",
    "methods": {},
    "version": 1
  }
}